{
    "contractName": "MetaGirlsContracts",
    "abi": [
        {
            "inputs": [],
            "stateMutability": "nonpayable",
            "type": "constructor"
        },
        {
            "anonymous": false,
            "inputs": [
                {
                    "indexed": true,
                    "internalType": "address",
                    "name": "account",
                    "type": "address"
                },
                {
                    "indexed": true,
                    "internalType": "address",
                    "name": "operator",
                    "type": "address"
                },
                {
                    "indexed": false,
                    "internalType": "bool",
                    "name": "approved",
                    "type": "bool"
                }
            ],
            "name": "ApprovalForAll",
            "type": "event"
        },
        {
            "anonymous": false,
            "inputs": [
                {
                    "indexed": true,
                    "internalType": "bytes32",
                    "name": "role",
                    "type": "bytes32"
                },
                {
                    "indexed": true,
                    "internalType": "bytes32",
                    "name": "previousAdminRole",
                    "type": "bytes32"
                },
                {
                    "indexed": true,
                    "internalType": "bytes32",
                    "name": "newAdminRole",
                    "type": "bytes32"
                }
            ],
            "name": "RoleAdminChanged",
            "type": "event"
        },
        {
            "anonymous": false,
            "inputs": [
                {
                    "indexed": true,
                    "internalType": "bytes32",
                    "name": "role",
                    "type": "bytes32"
                },
                {
                    "indexed": true,
                    "internalType": "address",
                    "name": "account",
                    "type": "address"
                },
                {
                    "indexed": true,
                    "internalType": "address",
                    "name": "sender",
                    "type": "address"
                }
            ],
            "name": "RoleGranted",
            "type": "event"
        },
        {
            "anonymous": false,
            "inputs": [
                {
                    "indexed": true,
                    "internalType": "bytes32",
                    "name": "role",
                    "type": "bytes32"
                },
                {
                    "indexed": true,
                    "internalType": "address",
                    "name": "account",
                    "type": "address"
                },
                {
                    "indexed": true,
                    "internalType": "address",
                    "name": "sender",
                    "type": "address"
                }
            ],
            "name": "RoleRevoked",
            "type": "event"
        },
        {
            "anonymous": false,
            "inputs": [
                {
                    "indexed": true,
                    "internalType": "address",
                    "name": "operator",
                    "type": "address"
                },
                {
                    "indexed": true,
                    "internalType": "address",
                    "name": "from",
                    "type": "address"
                },
                {
                    "indexed": true,
                    "internalType": "address",
                    "name": "to",
                    "type": "address"
                },
                {
                    "indexed": false,
                    "internalType": "uint256[]",
                    "name": "ids",
                    "type": "uint256[]"
                },
                {
                    "indexed": false,
                    "internalType": "uint256[]",
                    "name": "values",
                    "type": "uint256[]"
                }
            ],
            "name": "TransferBatch",
            "type": "event"
        },
        {
            "anonymous": false,
            "inputs": [
                {
                    "indexed": true,
                    "internalType": "address",
                    "name": "operator",
                    "type": "address"
                },
                {
                    "indexed": true,
                    "internalType": "address",
                    "name": "from",
                    "type": "address"
                },
                {
                    "indexed": true,
                    "internalType": "address",
                    "name": "to",
                    "type": "address"
                },
                {
                    "indexed": false,
                    "internalType": "uint256",
                    "name": "id",
                    "type": "uint256"
                },
                {
                    "indexed": false,
                    "internalType": "uint256",
                    "name": "value",
                    "type": "uint256"
                }
            ],
            "name": "TransferSingle",
            "type": "event"
        },
        {
            "anonymous": false,
            "inputs": [
                {
                    "indexed": false,
                    "internalType": "string",
                    "name": "value",
                    "type": "string"
                },
                {
                    "indexed": true,
                    "internalType": "uint256",
                    "name": "id",
                    "type": "uint256"
                }
            ],
            "name": "URI",
            "type": "event"
        },
        {
            "inputs": [],
            "name": "DEFAULT_ADMIN_ROLE",
            "outputs": [
                {
                    "internalType": "bytes32",
                    "name": "",
                    "type": "bytes32"
                }
            ],
            "stateMutability": "view",
            "type": "function"
        },
        {
            "inputs": [],
            "name": "URI_SETTER_ROLE",
            "outputs": [
                {
                    "internalType": "bytes32",
                    "name": "",
                    "type": "bytes32"
                }
            ],
            "stateMutability": "view",
            "type": "function"
        },
        {
            "inputs": [
                {
                    "internalType": "address",
                    "name": "account",
                    "type": "address"
                },
                {
                    "internalType": "uint256",
                    "name": "id",
                    "type": "uint256"
                }
            ],
            "name": "balanceOf",
            "outputs": [
                {
                    "internalType": "uint256",
                    "name": "",
                    "type": "uint256"
                }
            ],
            "stateMutability": "view",
            "type": "function"
        },
        {
            "inputs": [
                {
                    "internalType": "address[]",
                    "name": "accounts",
                    "type": "address[]"
                },
                {
                    "internalType": "uint256[]",
                    "name": "ids",
                    "type": "uint256[]"
                }
            ],
            "name": "balanceOfBatch",
            "outputs": [
                {
                    "internalType": "uint256[]",
                    "name": "",
                    "type": "uint256[]"
                }
            ],
            "stateMutability": "view",
            "type": "function"
        },
        {
            "inputs": [
                {
                    "internalType": "bytes32",
                    "name": "role",
                    "type": "bytes32"
                }
            ],
            "name": "getRoleAdmin",
            "outputs": [
                {
                    "internalType": "bytes32",
                    "name": "",
                    "type": "bytes32"
                }
            ],
            "stateMutability": "view",
            "type": "function"
        },
        {
            "inputs": [
                {
                    "internalType": "bytes32",
                    "name": "role",
                    "type": "bytes32"
                },
                {
                    "internalType": "address",
                    "name": "account",
                    "type": "address"
                }
            ],
            "name": "grantRole",
            "outputs": [],
            "stateMutability": "nonpayable",
            "type": "function"
        },
        {
            "inputs": [
                {
                    "internalType": "bytes32",
                    "name": "role",
                    "type": "bytes32"
                },
                {
                    "internalType": "address",
                    "name": "account",
                    "type": "address"
                }
            ],
            "name": "hasRole",
            "outputs": [
                {
                    "internalType": "bool",
                    "name": "",
                    "type": "bool"
                }
            ],
            "stateMutability": "view",
            "type": "function"
        },
        {
            "inputs": [
                {
                    "internalType": "address",
                    "name": "account",
                    "type": "address"
                },
                {
                    "internalType": "address",
                    "name": "operator",
                    "type": "address"
                }
            ],
            "name": "isApprovedForAll",
            "outputs": [
                {
                    "internalType": "bool",
                    "name": "",
                    "type": "bool"
                }
            ],
            "stateMutability": "view",
            "type": "function"
        },
        {
            "inputs": [
                {
                    "internalType": "bytes32",
                    "name": "role",
                    "type": "bytes32"
                },
                {
                    "internalType": "address",
                    "name": "account",
                    "type": "address"
                }
            ],
            "name": "renounceRole",
            "outputs": [],
            "stateMutability": "nonpayable",
            "type": "function"
        },
        {
            "inputs": [
                {
                    "internalType": "bytes32",
                    "name": "role",
                    "type": "bytes32"
                },
                {
                    "internalType": "address",
                    "name": "account",
                    "type": "address"
                }
            ],
            "name": "revokeRole",
            "outputs": [],
            "stateMutability": "nonpayable",
            "type": "function"
        },
        {
            "inputs": [
                {
                    "internalType": "address",
                    "name": "from",
                    "type": "address"
                },
                {
                    "internalType": "address",
                    "name": "to",
                    "type": "address"
                },
                {
                    "internalType": "uint256[]",
                    "name": "ids",
                    "type": "uint256[]"
                },
                {
                    "internalType": "uint256[]",
                    "name": "amounts",
                    "type": "uint256[]"
                },
                {
                    "internalType": "bytes",
                    "name": "data",
                    "type": "bytes"
                }
            ],
            "name": "safeBatchTransferFrom",
            "outputs": [],
            "stateMutability": "nonpayable",
            "type": "function"
        },
        {
            "inputs": [
                {
                    "internalType": "address",
                    "name": "from",
                    "type": "address"
                },
                {
                    "internalType": "address",
                    "name": "to",
                    "type": "address"
                },
                {
                    "internalType": "uint256",
                    "name": "id",
                    "type": "uint256"
                },
                {
                    "internalType": "uint256",
                    "name": "amount",
                    "type": "uint256"
                },
                {
                    "internalType": "bytes",
                    "name": "data",
                    "type": "bytes"
                }
            ],
            "name": "safeTransferFrom",
            "outputs": [],
            "stateMutability": "nonpayable",
            "type": "function"
        },
        {
            "inputs": [
                {
                    "internalType": "address",
                    "name": "operator",
                    "type": "address"
                },
                {
                    "internalType": "bool",
                    "name": "approved",
                    "type": "bool"
                }
            ],
            "name": "setApprovalForAll",
            "outputs": [],
            "stateMutability": "nonpayable",
            "type": "function"
        },
        {
            "inputs": [
                {
                    "internalType": "string",
                    "name": "newuri",
                    "type": "string"
                }
            ],
            "name": "setURI",
            "outputs": [],
            "stateMutability": "nonpayable",
            "type": "function"
        },
        {
            "inputs": [
                {
                    "internalType": "bytes4",
                    "name": "interfaceId",
                    "type": "bytes4"
                }
            ],
            "name": "supportsInterface",
            "outputs": [
                {
                    "internalType": "bool",
                    "name": "",
                    "type": "bool"
                }
            ],
            "stateMutability": "view",
            "type": "function"
        },
        {
            "inputs": [
                {
                    "internalType": "uint256",
                    "name": "",
                    "type": "uint256"
                }
            ],
            "name": "uri",
            "outputs": [
                {
                    "internalType": "string",
                    "name": "",
                    "type": "string"
                }
            ],
            "stateMutability": "view",
            "type": "function"
        }
    ],
    "bytecode": "60806040523480156200001157600080fd5b506040805160208101909152600081526200002c816200006c565b506200003a60003362000085565b620000667f7804d923f43a17d325d77e781528e0793b2edd9890ab45fc64efd7b4b427744c3362000085565b6200020c565b80516200008190600290602084019062000129565b5050565b60008281526003602090815260408083206001600160a01b038516845290915290205460ff16620000815760008281526003602090815260408083206001600160a01b03851684529091529020805460ff19166001179055620000e53390565b6001600160a01b0316816001600160a01b0316837f2f8788117e7eff1d82e926ec794901d17c78024a50270940304540a733656f0d60405160405180910390a45050565b8280546200013790620001cf565b90600052602060002090601f0160209004810192826200015b5760008555620001a6565b82601f106200017657805160ff1916838001178555620001a6565b82800160010185558215620001a6579182015b82811115620001a657825182559160200191906001019062000189565b50620001b4929150620001b8565b5090565b5b80821115620001b45760008155600101620001b9565b600181811c90821680620001e457607f821691505b602082108114156200020657634e487b7160e01b600052602260045260246000fd5b50919050565b611bb4806200021c6000396000f3fe608060405234801561001057600080fd5b50600436106100ff5760003560e01c80634e1273f411610097578063a22cb46511610066578063a22cb46514610240578063d547741f14610253578063e985e9c514610266578063f242432a146102a257600080fd5b80634e1273f4146101de5780637f345710146101fe57806391d1485414610225578063a217fddf1461023857600080fd5b8063248a9ca3116100d3578063248a9ca3146101825780632eb2c2d6146101a55780632f2ff15d146101b857806336568abe146101cb57600080fd5b8062fdd58e1461010457806301ffc9a71461012a57806302fe53051461014d5780630e89341c14610162575b600080fd5b610117610112366004611515565b6102b5565b6040519081526020015b60405180910390f35b61013d610138366004611643565b61034c565b6040519015158152602001610121565b61016061015b36600461167b565b61035d565b005b610175610170366004611609565b610395565b6040516101219190611888565b610117610190366004611609565b60009081526003602052604090206001015490565b6101606101b33660046113d2565b610429565b6101606101c6366004611621565b6104c0565b6101606101d9366004611621565b6104eb565b6101f16101ec36600461153e565b610565565b6040516101219190611847565b6101177f7804d923f43a17d325d77e781528e0793b2edd9890ab45fc64efd7b4b427744c81565b61013d610233366004611621565b6106c7565b610117600081565b61016061024e3660046114db565b6106f2565b610160610261366004611621565b6106fd565b61013d6102743660046113a0565b6001600160a01b03918216600090815260016020908152604080832093909416825291909152205460ff1690565b6101606102b0366004611478565b610723565b60006001600160a01b0383166103265760405162461bcd60e51b815260206004820152602b60248201527f455243313135353a2062616c616e636520717565727920666f7220746865207a60448201526a65726f206164647265737360a81b60648201526084015b60405180910390fd5b506000908152602081815260408083206001600160a01b03949094168352929052205490565b6000610357826107aa565b92915050565b7f7804d923f43a17d325d77e781528e0793b2edd9890ab45fc64efd7b4b427744c61038881336107cf565b61039182610833565b5050565b6060600280546103a490611a14565b80601f01602080910402602001604051908101604052809291908181526020018280546103d090611a14565b801561041d5780601f106103f25761010080835404028352916020019161041d565b820191906000526020600020905b81548152906001019060200180831161040057829003601f168201915b50505050509050919050565b6001600160a01b03851633148061044557506104458533610274565b6104ac5760405162461bcd60e51b815260206004820152603260248201527f455243313135353a207472616e736665722063616c6c6572206973206e6f74206044820152711bdddb995c881b9bdc88185c1c1c9bdd995960721b606482015260840161031d565b6104b98585858585610846565b5050505050565b6000828152600360205260409020600101546104dc81336107cf565b6104e68383610a3f565b505050565b6001600160a01b038116331461055b5760405162461bcd60e51b815260206004820152602f60248201527f416363657373436f6e74726f6c3a2063616e206f6e6c792072656e6f756e636560448201526e103937b632b9903337b91039b2b63360891b606482015260840161031d565b6103918282610ac5565b606081518351146105ca5760405162461bcd60e51b815260206004820152602960248201527f455243313135353a206163636f756e747320616e6420696473206c656e677468604482015268040dad2e6dac2e8c6d60bb1b606482015260840161031d565b6000835167ffffffffffffffff8111156105f457634e487b7160e01b600052604160045260246000fd5b60405190808252806020026020018201604052801561061d578160200160208202803683370190505b50905060005b84518110156106bf5761068485828151811061064f57634e487b7160e01b600052603260045260246000fd5b602002602001015185838151811061067757634e487b7160e01b600052603260045260246000fd5b60200260200101516102b5565b8282815181106106a457634e487b7160e01b600052603260045260246000fd5b60209081029190910101526106b881611a7c565b9050610623565b509392505050565b60009182526003602090815260408084206001600160a01b0393909316845291905290205460ff1690565b610391338383610b2c565b60008281526003602052604090206001015461071981336107cf565b6104e68383610ac5565b6001600160a01b03851633148061073f575061073f8533610274565b61079d5760405162461bcd60e51b815260206004820152602960248201527f455243313135353a2063616c6c6572206973206e6f74206f776e6572206e6f7260448201526808185c1c1c9bdd995960ba1b606482015260840161031d565b6104b98585858585610c0d565b60006001600160e01b03198216637965db0b60e01b1480610357575061035782610d33565b6107d982826106c7565b610391576107f1816001600160a01b03166014610d83565b6107fc836020610d83565b60405160200161080d92919061172f565b60408051601f198184030181529082905262461bcd60e51b825261031d91600401611888565b80516103919060029060208401906111fa565b81518351146108a85760405162461bcd60e51b815260206004820152602860248201527f455243313135353a2069647320616e6420616d6f756e7473206c656e677468206044820152670dad2e6dac2e8c6d60c31b606482015260840161031d565b6001600160a01b0384166108ce5760405162461bcd60e51b815260040161031d906118e3565b3360005b84518110156109d15760008582815181106108fd57634e487b7160e01b600052603260045260246000fd5b60200260200101519050600085838151811061092957634e487b7160e01b600052603260045260246000fd5b602090810291909101810151600084815280835260408082206001600160a01b038e1683529093529190912054909150818110156109795760405162461bcd60e51b815260040161031d90611928565b6000838152602081815260408083206001600160a01b038e8116855292528083208585039055908b168252812080548492906109b6908490611996565b92505081905550505050806109ca90611a7c565b90506108d2565b50846001600160a01b0316866001600160a01b0316826001600160a01b03167f4a39dc06d4c0dbc64b70af90fd698a233a518aa5d07e595d983b8c0526c8f7fb8787604051610a2192919061185a565b60405180910390a4610a37818787878787610f6c565b505050505050565b610a4982826106c7565b6103915760008281526003602090815260408083206001600160a01b03851684529091529020805460ff19166001179055610a813390565b6001600160a01b0316816001600160a01b0316837f2f8788117e7eff1d82e926ec794901d17c78024a50270940304540a733656f0d60405160405180910390a45050565b610acf82826106c7565b156103915760008281526003602090815260408083206001600160a01b0385168085529252808320805460ff1916905551339285917ff6391f5c32d9c69d2a47ea670b442974b53935d1edc7fd64eb21e047a839171b9190a45050565b816001600160a01b0316836001600160a01b03161415610ba05760405162461bcd60e51b815260206004820152602960248201527f455243313135353a2073657474696e6720617070726f76616c20737461747573604482015268103337b91039b2b63360b91b606482015260840161031d565b6001600160a01b03838116600081815260016020908152604080832094871680845294825291829020805460ff191686151590811790915591519182527f17307eab39ab6107e8899845ad3d59bd9653f200f220920489ca2b5937696c31910160405180910390a3505050565b6001600160a01b038416610c335760405162461bcd60e51b815260040161031d906118e3565b33610c4c818787610c43886110d7565b6104b9886110d7565b6000848152602081815260408083206001600160a01b038a16845290915290205483811015610c8d5760405162461bcd60e51b815260040161031d90611928565b6000858152602081815260408083206001600160a01b038b8116855292528083208785039055908816825281208054869290610cca908490611996565b909155505060408051868152602081018690526001600160a01b03808916928a821692918616917fc3d58168c5ae7397731d063d5bbf3d657854427343f4c083240f7aacaa2d0f62910160405180910390a4610d2a828888888888611130565b50505050505050565b60006001600160e01b03198216636cdb3d1360e11b1480610d6457506001600160e01b031982166303a24d0760e21b145b8061035757506301ffc9a760e01b6001600160e01b0319831614610357565b60606000610d928360026119ae565b610d9d906002611996565b67ffffffffffffffff811115610dc357634e487b7160e01b600052604160045260246000fd5b6040519080825280601f01601f191660200182016040528015610ded576020820181803683370190505b509050600360fc1b81600081518110610e1657634e487b7160e01b600052603260045260246000fd5b60200101906001600160f81b031916908160001a905350600f60fb1b81600181518110610e5357634e487b7160e01b600052603260045260246000fd5b60200101906001600160f81b031916908160001a9053506000610e778460026119ae565b610e82906001611996565b90505b6001811115610f16576f181899199a1a9b1b9c1cb0b131b232b360811b85600f1660108110610ec457634e487b7160e01b600052603260045260246000fd5b1a60f81b828281518110610ee857634e487b7160e01b600052603260045260246000fd5b60200101906001600160f81b031916908160001a90535060049490941c93610f0f816119fd565b9050610e85565b508315610f655760405162461bcd60e51b815260206004820181905260248201527f537472696e67733a20686578206c656e67746820696e73756666696369656e74604482015260640161031d565b9392505050565b6001600160a01b0384163b15610a375760405163bc197c8160e01b81526001600160a01b0385169063bc197c8190610fb090899089908890889088906004016117a4565b602060405180830381600087803b158015610fca57600080fd5b505af1925050508015610ffa575060408051601f3d908101601f19168201909252610ff79181019061165f565b60015b6110a757611006611ac3565b806308c379a01415611040575061101b611adb565b806110265750611042565b8060405162461bcd60e51b815260040161031d9190611888565b505b60405162461bcd60e51b815260206004820152603460248201527f455243313135353a207472616e7366657220746f206e6f6e20455243313135356044820152732932b1b2b4bb32b91034b6b83632b6b2b73a32b960611b606482015260840161031d565b6001600160e01b0319811663bc197c8160e01b14610d2a5760405162461bcd60e51b815260040161031d9061189b565b6040805160018082528183019092526060916000919060208083019080368337019050509050828160008151811061111f57634e487b7160e01b600052603260045260246000fd5b602090810291909101015292915050565b6001600160a01b0384163b15610a375760405163f23a6e6160e01b81526001600160a01b0385169063f23a6e61906111749089908990889088908890600401611802565b602060405180830381600087803b15801561118e57600080fd5b505af19250505080156111be575060408051601f3d908101601f191682019092526111bb9181019061165f565b60015b6111ca57611006611ac3565b6001600160e01b0319811663f23a6e6160e01b14610d2a5760405162461bcd60e51b815260040161031d9061189b565b82805461120690611a14565b90600052602060002090601f016020900481019282611228576000855561126e565b82601f1061124157805160ff191683800117855561126e565b8280016001018555821561126e579182015b8281111561126e578251825591602001919060010190611253565b5061127a92915061127e565b5090565b5b8082111561127a576000815560010161127f565b600067ffffffffffffffff8311156112ad576112ad611aad565b6040516112c4601f8501601f191660200182611a4f565b8091508381528484840111156112d957600080fd5b83836020830137600060208583010152509392505050565b80356001600160a01b038116811461130857600080fd5b919050565b600082601f83011261131d578081fd5b8135602061132a82611972565b6040516113378282611a4f565b8381528281019150858301600585901b87018401881015611356578586fd5b855b8581101561137457813584529284019290840190600101611358565b5090979650505050505050565b600082601f830112611391578081fd5b610f6583833560208501611293565b600080604083850312156113b2578182fd5b6113bb836112f1565b91506113c9602084016112f1565b90509250929050565b600080600080600060a086880312156113e9578081fd5b6113f2866112f1565b9450611400602087016112f1565b9350604086013567ffffffffffffffff8082111561141c578283fd5b61142889838a0161130d565b9450606088013591508082111561143d578283fd5b61144989838a0161130d565b9350608088013591508082111561145e578283fd5b5061146b88828901611381565b9150509295509295909350565b600080600080600060a0868803121561148f578081fd5b611498866112f1565b94506114a6602087016112f1565b93506040860135925060608601359150608086013567ffffffffffffffff8111156114cf578182fd5b61146b88828901611381565b600080604083850312156114ed578182fd5b6114f6836112f1565b91506020830135801515811461150a578182fd5b809150509250929050565b60008060408385031215611527578182fd5b611530836112f1565b946020939093013593505050565b60008060408385031215611550578182fd5b823567ffffffffffffffff80821115611567578384fd5b818501915085601f83011261157a578384fd5b8135602061158782611972565b6040516115948282611a4f565b8381528281019150858301600585901b870184018b10156115b3578889fd5b8896505b848710156115dc576115c8816112f1565b8352600196909601959183019183016115b7565b50965050860135925050808211156115f2578283fd5b506115ff8582860161130d565b9150509250929050565b60006020828403121561161a578081fd5b5035919050565b60008060408385031215611633578081fd5b823591506113c9602084016112f1565b600060208284031215611654578081fd5b8135610f6581611b65565b600060208284031215611670578081fd5b8151610f6581611b65565b60006020828403121561168c578081fd5b813567ffffffffffffffff8111156116a2578182fd5b8201601f810184136116b2578182fd5b6116c184823560208401611293565b949350505050565b6000815180845260208085019450808401835b838110156116f8578151875295820195908201906001016116dc565b509495945050505050565b6000815180845261171b8160208601602086016119cd565b601f01601f19169290920160200192915050565b7f416363657373436f6e74726f6c3a206163636f756e74200000000000000000008152600083516117678160178501602088016119cd565b7001034b99036b4b9b9b4b733903937b6329607d1b60179184019182015283516117988160288401602088016119cd565b01602801949350505050565b6001600160a01b0386811682528516602082015260a0604082018190526000906117d0908301866116c9565b82810360608401526117e281866116c9565b905082810360808401526117f68185611703565b98975050505050505050565b6001600160a01b03868116825285166020820152604081018490526060810183905260a06080820181905260009061183c90830184611703565b979650505050505050565b602081526000610f6560208301846116c9565b60408152600061186d60408301856116c9565b828103602084015261187f81856116c9565b95945050505050565b602081526000610f656020830184611703565b60208082526028908201527f455243313135353a204552433131353552656365697665722072656a656374656040820152676420746f6b656e7360c01b606082015260800190565b60208082526025908201527f455243313135353a207472616e7366657220746f20746865207a65726f206164604082015264647265737360d81b606082015260800190565b6020808252602a908201527f455243313135353a20696e73756666696369656e742062616c616e636520666f60408201526939103a3930b739b332b960b11b606082015260800190565b600067ffffffffffffffff82111561198c5761198c611aad565b5060051b60200190565b600082198211156119a9576119a9611a97565b500190565b60008160001904831182151516156119c8576119c8611a97565b500290565b60005b838110156119e85781810151838201526020016119d0565b838111156119f7576000848401525b50505050565b600081611a0c57611a0c611a97565b506000190190565b600181811c90821680611a2857607f821691505b60208210811415611a4957634e487b7160e01b600052602260045260246000fd5b50919050565b601f8201601f1916810167ffffffffffffffff81118282101715611a7557611a75611aad565b6040525050565b6000600019821415611a9057611a90611a97565b5060010190565b634e487b7160e01b600052601160045260246000fd5b634e487b7160e01b600052604160045260246000fd5b600060033d1115611ad857600481823e5160e01c5b90565b600060443d1015611ae95790565b6040516003193d81016004833e81513d67ffffffffffffffff8160248401118184111715611b1957505050505090565b8285019150815181811115611b315750505050505090565b843d8701016020828501011115611b4b5750505050505090565b611b5a60208286010187611a4f565b509095945050505050565b6001600160e01b031981168114611b7b57600080fd5b5056fea264697066735822122007003db0360bc6b47be13b9ca615afa09a7f87c1c7a78ba98eb8626f7e95f7a964736f6c63430008040033",
    "sourcePath": "d:/Projects/meta girls nft/contracts/contracts/MetaGirlsContracts.sol",
    "compiler": {
        "name": "solc",
        "version": "0.8.4+commit.c7e474f2"
    },
    "functionHashes": {
        "DEFAULT_ADMIN_ROLE()": "a217fddf",
        "URI_SETTER_ROLE()": "7f345710",
        "balanceOf(address,uint256)": "00fdd58e",
        "balanceOfBatch(address[],uint256[])": "4e1273f4",
        "getRoleAdmin(bytes32)": "248a9ca3",
        "grantRole(bytes32,address)": "2f2ff15d",
        "hasRole(bytes32,address)": "91d14854",
        "isApprovedForAll(address,address)": "e985e9c5",
        "renounceRole(bytes32,address)": "36568abe",
        "revokeRole(bytes32,address)": "d547741f",
        "safeBatchTransferFrom(address,address,uint256[],uint256[],bytes)": "2eb2c2d6",
        "safeTransferFrom(address,address,uint256,uint256,bytes)": "f242432a",
        "setApprovalForAll(address,bool)": "a22cb465",
        "setURI(string)": "02fe5305",
        "supportsInterface(bytes4)": "01ffc9a7",
        "uri(uint256)": "0e89341c"
    },
    "gasEstimates": {
        "creation": {
            "codeDepositCost": "1418400",
            "executionCost": "infinite",
            "totalCost": "infinite"
        },
        "external": {
            "DEFAULT_ADMIN_ROLE()": "273",
            "URI_SETTER_ROLE()": "229",
            "balanceOf(address,uint256)": "1395",
            "balanceOfBatch(address[],uint256[])": "infinite",
            "getRoleAdmin(bytes32)": "1156",
            "grantRole(bytes32,address)": "infinite",
            "hasRole(bytes32,address)": "1432",
            "isApprovedForAll(address,address)": "infinite",
            "renounceRole(bytes32,address)": "24390",
            "revokeRole(bytes32,address)": "infinite",
            "safeBatchTransferFrom(address,address,uint256[],uint256[],bytes)": "infinite",
            "safeTransferFrom(address,address,uint256,uint256,bytes)": "infinite",
            "setApprovalForAll(address,bool)": "23308",
            "setURI(string)": "infinite",
            "supportsInterface(bytes4)": "infinite",
            "uri(uint256)": "infinite"
        }
    }
}